{
  "_format": "hh-sol-artifact-1",
  "contractName": "HKStablecoin",
  "sourceName": "contracts/HKStablecoin.sol",
  "abi": [
    {
      "inputs": [],
      "stateMutability": "nonpayable",
      "type": "constructor"
    },
    {
      "inputs": [],
      "name": "AccessControlBadConfirmation",
      "type": "error"
    },
    {
      "inputs": [
        {
          "internalType": "address",
          "name": "account",
          "type": "address"
        },
        {
          "internalType": "bytes32",
          "name": "neededRole",
          "type": "bytes32"
        }
      ],
      "name": "AccessControlUnauthorizedAccount",
      "type": "error"
    },
    {
      "inputs": [],
      "name": "ECDSAInvalidSignature",
      "type": "error"
    },
    {
      "inputs": [
        {
          "internalType": "uint256",
          "name": "length",
          "type": "uint256"
        }
      ],
      "name": "ECDSAInvalidSignatureLength",
      "type": "error"
    },
    {
      "inputs": [
        {
          "internalType": "bytes32",
          "name": "s",
          "type": "bytes32"
        }
      ],
      "name": "ECDSAInvalidSignatureS",
      "type": "error"
    },
    {
      "inputs": [
        {
          "internalType": "address",
          "name": "spender",
          "type": "address"
        },
        {
          "internalType": "uint256",
          "name": "allowance",
          "type": "uint256"
        },
        {
          "internalType": "uint256",
          "name": "needed",
          "type": "uint256"
        }
      ],
      "name": "ERC20InsufficientAllowance",
      "type": "error"
    },
    {
      "inputs": [
        {
          "internalType": "address",
          "name": "sender",
          "type": "address"
        },
        {
          "internalType": "uint256",
          "name": "balance",
          "type": "uint256"
        },
        {
          "internalType": "uint256",
          "name": "needed",
          "type": "uint256"
        }
      ],
      "name": "ERC20InsufficientBalance",
      "type": "error"
    },
    {
      "inputs": [
        {
          "internalType": "address",
          "name": "approver",
          "type": "address"
        }
      ],
      "name": "ERC20InvalidApprover",
      "type": "error"
    },
    {
      "inputs": [
        {
          "internalType": "address",
          "name": "receiver",
          "type": "address"
        }
      ],
      "name": "ERC20InvalidReceiver",
      "type": "error"
    },
    {
      "inputs": [
        {
          "internalType": "address",
          "name": "sender",
          "type": "address"
        }
      ],
      "name": "ERC20InvalidSender",
      "type": "error"
    },
    {
      "inputs": [
        {
          "internalType": "address",
          "name": "spender",
          "type": "address"
        }
      ],
      "name": "ERC20InvalidSpender",
      "type": "error"
    },
    {
      "inputs": [
        {
          "internalType": "uint256",
          "name": "deadline",
          "type": "uint256"
        }
      ],
      "name": "ERC2612ExpiredSignature",
      "type": "error"
    },
    {
      "inputs": [
        {
          "internalType": "address",
          "name": "signer",
          "type": "address"
        },
        {
          "internalType": "address",
          "name": "owner",
          "type": "address"
        }
      ],
      "name": "ERC2612InvalidSigner",
      "type": "error"
    },
    {
      "inputs": [],
      "name": "EnforcedPause",
      "type": "error"
    },
    {
      "inputs": [],
      "name": "ExpectedPause",
      "type": "error"
    },
    {
      "inputs": [
        {
          "internalType": "address",
          "name": "account",
          "type": "address"
        },
        {
          "internalType": "uint256",
          "name": "currentNonce",
          "type": "uint256"
        }
      ],
      "name": "InvalidAccountNonce",
      "type": "error"
    },
    {
      "inputs": [],
      "name": "InvalidInitialization",
      "type": "error"
    },
    {
      "inputs": [],
      "name": "NotInitializing",
      "type": "error"
    },
    {
      "anonymous": false,
      "inputs": [
        {
          "indexed": true,
          "internalType": "address",
          "name": "account",
          "type": "address"
        },
        {
          "indexed": false,
          "internalType": "bool",
          "name": "isFrozen",
          "type": "bool"
        },
        {
          "indexed": false,
          "internalType": "string",
          "name": "memo",
          "type": "string"
        }
      ],
      "name": "AccountFrozen",
      "type": "event"
    },
    {
      "anonymous": false,
      "inputs": [
        {
          "indexed": true,
          "internalType": "address",
          "name": "owner",
          "type": "address"
        },
        {
          "indexed": true,
          "internalType": "address",
          "name": "spender",
          "type": "address"
        },
        {
          "indexed": false,
          "internalType": "uint256",
          "name": "value",
          "type": "uint256"
        }
      ],
      "name": "Approval",
      "type": "event"
    },
    {
      "anonymous": false,
      "inputs": [
        {
          "indexed": true,
          "internalType": "bytes32",
          "name": "attestationId",
          "type": "bytes32"
        },
        {
          "indexed": false,
          "internalType": "string",
          "name": "uri",
          "type": "string"
        },
        {
          "indexed": false,
          "internalType": "bytes32",
          "name": "documentHash",
          "type": "bytes32"
        }
      ],
      "name": "AttestationPublished",
      "type": "event"
    },
    {
      "anonymous": false,
      "inputs": [
        {
          "indexed": true,
          "internalType": "bytes32",
          "name": "attestationId",
          "type": "bytes32"
        }
      ],
      "name": "AttestationRemoved",
      "type": "event"
    },
    {
      "anonymous": false,
      "inputs": [
        {
          "indexed": false,
          "internalType": "bool",
          "name": "isPaused",
          "type": "bool"
        },
        {
          "indexed": false,
          "internalType": "string",
          "name": "memo",
          "type": "string"
        }
      ],
      "name": "CircuitBreakerStatusChanged",
      "type": "event"
    },
    {
      "anonymous": false,
      "inputs": [],
      "name": "EIP712DomainChanged",
      "type": "event"
    },
    {
      "anonymous": false,
      "inputs": [
        {
          "indexed": true,
          "internalType": "address",
          "name": "operator",
          "type": "address"
        },
        {
          "indexed": true,
          "internalType": "address",
          "name": "from",
          "type": "address"
        },
        {
          "indexed": true,
          "internalType": "address",
          "name": "to",
          "type": "address"
        },
        {
          "indexed": false,
          "internalType": "uint256",
          "name": "amount",
          "type": "uint256"
        },
        {
          "indexed": false,
          "internalType": "string",
          "name": "memo",
          "type": "string"
        }
      ],
      "name": "ForceTransfer",
      "type": "event"
    },
    {
      "anonymous": false,
      "inputs": [
        {
          "indexed": false,
          "internalType": "uint64",
          "name": "version",
          "type": "uint64"
        }
      ],
      "name": "Initialized",
      "type": "event"
    },
    {
      "anonymous": false,
      "inputs": [
        {
          "indexed": true,
          "internalType": "address",
          "name": "account",
          "type": "address"
        },
        {
          "indexed": false,
          "internalType": "bool",
          "name": "isApproved",
          "type": "bool"
        },
        {
          "indexed": false,
          "internalType": "string",
          "name": "memo",
          "type": "string"
        }
      ],
      "name": "KycStatusUpdated",
      "type": "event"
    },
    {
      "anonymous": false,
      "inputs": [
        {
          "indexed": false,
          "internalType": "address",
          "name": "account",
          "type": "address"
        }
      ],
      "name": "Paused",
      "type": "event"
    },
    {
      "anonymous": false,
      "inputs": [
        {
          "indexed": true,
          "internalType": "address",
          "name": "to",
          "type": "address"
        },
        {
          "indexed": false,
          "internalType": "uint256",
          "name": "amount",
          "type": "uint256"
        },
        {
          "indexed": false,
          "internalType": "string",
          "name": "memo",
          "type": "string"
        }
      ],
      "name": "ReservesMinted",
      "type": "event"
    },
    {
      "anonymous": false,
      "inputs": [
        {
          "indexed": true,
          "internalType": "address",
          "name": "from",
          "type": "address"
        },
        {
          "indexed": true,
          "internalType": "address",
          "name": "beneficiary",
          "type": "address"
        },
        {
          "indexed": false,
          "internalType": "uint256",
          "name": "amount",
          "type": "uint256"
        },
        {
          "indexed": false,
          "internalType": "string",
          "name": "memo",
          "type": "string"
        }
      ],
      "name": "ReservesRedeemed",
      "type": "event"
    },
    {
      "anonymous": false,
      "inputs": [
        {
          "indexed": true,
          "internalType": "bytes32",
          "name": "role",
          "type": "bytes32"
        },
        {
          "indexed": true,
          "internalType": "bytes32",
          "name": "previousAdminRole",
          "type": "bytes32"
        },
        {
          "indexed": true,
          "internalType": "bytes32",
          "name": "newAdminRole",
          "type": "bytes32"
        }
      ],
      "name": "RoleAdminChanged",
      "type": "event"
    },
    {
      "anonymous": false,
      "inputs": [
        {
          "indexed": true,
          "internalType": "bytes32",
          "name": "role",
          "type": "bytes32"
        },
        {
          "indexed": true,
          "internalType": "address",
          "name": "account",
          "type": "address"
        },
        {
          "indexed": true,
          "internalType": "address",
          "name": "sender",
          "type": "address"
        }
      ],
      "name": "RoleGranted",
      "type": "event"
    },
    {
      "anonymous": false,
      "inputs": [
        {
          "indexed": true,
          "internalType": "bytes32",
          "name": "role",
          "type": "bytes32"
        },
        {
          "indexed": true,
          "internalType": "address",
          "name": "account",
          "type": "address"
        },
        {
          "indexed": true,
          "internalType": "address",
          "name": "sender",
          "type": "address"
        }
      ],
      "name": "RoleRevoked",
      "type": "event"
    },
    {
      "anonymous": false,
      "inputs": [
        {
          "indexed": true,
          "internalType": "address",
          "name": "from",
          "type": "address"
        },
        {
          "indexed": true,
          "internalType": "address",
          "name": "to",
          "type": "address"
        },
        {
          "indexed": false,
          "internalType": "uint256",
          "name": "value",
          "type": "uint256"
        }
      ],
      "name": "Transfer",
      "type": "event"
    },
    {
      "anonymous": false,
      "inputs": [
        {
          "indexed": false,
          "internalType": "address",
          "name": "account",
          "type": "address"
        }
      ],
      "name": "Unpaused",
      "type": "event"
    },
    {
      "inputs": [],
      "name": "ATTESTOR_ROLE",
      "outputs": [
        {
          "internalType": "bytes32",
          "name": "",
          "type": "bytes32"
        }
      ],
      "stateMutability": "view",
      "type": "function"
    },
    {
      "inputs": [],
      "name": "COMPLIANCE_ROLE",
      "outputs": [
        {
          "internalType": "bytes32",
          "name": "",
          "type": "bytes32"
        }
      ],
      "stateMutability": "view",
      "type": "function"
    },
    {
      "inputs": [],
      "name": "DEFAULT_ADMIN_ROLE",
      "outputs": [
        {
          "internalType": "bytes32",
          "name": "",
          "type": "bytes32"
        }
      ],
      "stateMutability": "view",
      "type": "function"
    },
    {
      "inputs": [],
      "name": "DOMAIN_SEPARATOR",
      "outputs": [
        {
          "internalType": "bytes32",
          "name": "",
          "type": "bytes32"
        }
      ],
      "stateMutability": "view",
      "type": "function"
    },
    {
      "inputs": [],
      "name": "PAUSER_ROLE",
      "outputs": [
        {
          "internalType": "bytes32",
          "name": "",
          "type": "bytes32"
        }
      ],
      "stateMutability": "view",
      "type": "function"
    },
    {
      "inputs": [],
      "name": "RESERVE_MANAGER_ROLE",
      "outputs": [
        {
          "internalType": "bytes32",
          "name": "",
          "type": "bytes32"
        }
      ],
      "stateMutability": "view",
      "type": "function"
    },
    {
      "inputs": [
        {
          "internalType": "address",
          "name": "owner",
          "type": "address"
        },
        {
          "internalType": "address",
          "name": "spender",
          "type": "address"
        }
      ],
      "name": "allowance",
      "outputs": [
        {
          "internalType": "uint256",
          "name": "",
          "type": "uint256"
        }
      ],
      "stateMutability": "view",
      "type": "function"
    },
    {
      "inputs": [
        {
          "internalType": "address",
          "name": "spender",
          "type": "address"
        },
        {
          "internalType": "uint256",
          "name": "value",
          "type": "uint256"
        }
      ],
      "name": "approve",
      "outputs": [
        {
          "internalType": "bool",
          "name": "",
          "type": "bool"
        }
      ],
      "stateMutability": "nonpayable",
      "type": "function"
    },
    {
      "inputs": [
        {
          "internalType": "address",
          "name": "account",
          "type": "address"
        }
      ],
      "name": "balanceOf",
      "outputs": [
        {
          "internalType": "uint256",
          "name": "",
          "type": "uint256"
        }
      ],
      "stateMutability": "view",
      "type": "function"
    },
    {
      "inputs": [],
      "name": "decimals",
      "outputs": [
        {
          "internalType": "uint8",
          "name": "",
          "type": "uint8"
        }
      ],
      "stateMutability": "pure",
      "type": "function"
    },
    {
      "inputs": [],
      "name": "eip712Domain",
      "outputs": [
        {
          "internalType": "bytes1",
          "name": "fields",
          "type": "bytes1"
        },
        {
          "internalType": "string",
          "name": "name",
          "type": "string"
        },
        {
          "internalType": "string",
          "name": "version",
          "type": "string"
        },
        {
          "internalType": "uint256",
          "name": "chainId",
          "type": "uint256"
        },
        {
          "internalType": "address",
          "name": "verifyingContract",
          "type": "address"
        },
        {
          "internalType": "bytes32",
          "name": "salt",
          "type": "bytes32"
        },
        {
          "internalType": "uint256[]",
          "name": "extensions",
          "type": "uint256[]"
        }
      ],
      "stateMutability": "view",
      "type": "function"
    },
    {
      "inputs": [
        {
          "internalType": "address",
          "name": "from",
          "type": "address"
        },
        {
          "internalType": "address",
          "name": "to",
          "type": "address"
        },
        {
          "internalType": "uint256",
          "name": "amount",
          "type": "uint256"
        },
        {
          "internalType": "string",
          "name": "memo",
          "type": "string"
        }
      ],
      "name": "forceTransfer",
      "outputs": [],
      "stateMutability": "nonpayable",
      "type": "function"
    },
    {
      "inputs": [
        {
          "internalType": "address",
          "name": "account",
          "type": "address"
        },
        {
          "internalType": "bool",
          "name": "freeze",
          "type": "bool"
        },
        {
          "internalType": "string",
          "name": "memo",
          "type": "string"
        }
      ],
      "name": "freezeAccount",
      "outputs": [],
      "stateMutability": "nonpayable",
      "type": "function"
    },
    {
      "inputs": [
        {
          "internalType": "bytes32",
          "name": "attestationId",
          "type": "bytes32"
        }
      ],
      "name": "getAttestation",
      "outputs": [
        {
          "components": [
            {
              "internalType": "string",
              "name": "uri",
              "type": "string"
            },
            {
              "internalType": "bytes32",
              "name": "documentHash",
              "type": "bytes32"
            },
            {
              "internalType": "uint256",
              "name": "publishedAt",
              "type": "uint256"
            }
          ],
          "internalType": "struct HKStablecoin.Attestation",
          "name": "",
          "type": "tuple"
        }
      ],
      "stateMutability": "view",
      "type": "function"
    },
    {
      "inputs": [
        {
          "internalType": "bytes32",
          "name": "role",
          "type": "bytes32"
        }
      ],
      "name": "getRoleAdmin",
      "outputs": [
        {
          "internalType": "bytes32",
          "name": "",
          "type": "bytes32"
        }
      ],
      "stateMutability": "view",
      "type": "function"
    },
    {
      "inputs": [
        {
          "internalType": "bytes32",
          "name": "role",
          "type": "bytes32"
        },
        {
          "internalType": "uint256",
          "name": "index",
          "type": "uint256"
        }
      ],
      "name": "getRoleMember",
      "outputs": [
        {
          "internalType": "address",
          "name": "",
          "type": "address"
        }
      ],
      "stateMutability": "view",
      "type": "function"
    },
    {
      "inputs": [
        {
          "internalType": "bytes32",
          "name": "role",
          "type": "bytes32"
        }
      ],
      "name": "getRoleMemberCount",
      "outputs": [
        {
          "internalType": "uint256",
          "name": "",
          "type": "uint256"
        }
      ],
      "stateMutability": "view",
      "type": "function"
    },
    {
      "inputs": [
        {
          "internalType": "bytes32",
          "name": "role",
          "type": "bytes32"
        }
      ],
      "name": "getRoleMembers",
      "outputs": [
        {
          "internalType": "address[]",
          "name": "",
          "type": "address[]"
        }
      ],
      "stateMutability": "view",
      "type": "function"
    },
    {
      "inputs": [
        {
          "internalType": "bytes32",
          "name": "role",
          "type": "bytes32"
        },
        {
          "internalType": "address",
          "name": "account",
          "type": "address"
        }
      ],
      "name": "grantRole",
      "outputs": [],
      "stateMutability": "nonpayable",
      "type": "function"
    },
    {
      "inputs": [
        {
          "internalType": "bytes32",
          "name": "role",
          "type": "bytes32"
        },
        {
          "internalType": "address",
          "name": "account",
          "type": "address"
        }
      ],
      "name": "hasRole",
      "outputs": [
        {
          "internalType": "bool",
          "name": "",
          "type": "bool"
        }
      ],
      "stateMutability": "view",
      "type": "function"
    },
    {
      "inputs": [
        {
          "internalType": "string",
          "name": "name_",
          "type": "string"
        },
        {
          "internalType": "string",
          "name": "symbol_",
          "type": "string"
        },
        {
          "internalType": "address",
          "name": "admin",
          "type": "address"
        },
        {
          "internalType": "address",
          "name": "reserveManager",
          "type": "address"
        },
        {
          "internalType": "address",
          "name": "complianceOfficer",
          "type": "address"
        },
        {
          "internalType": "address",
          "name": "pauser",
          "type": "address"
        },
        {
          "internalType": "address",
          "name": "attestor",
          "type": "address"
        }
      ],
      "name": "initialize",
      "outputs": [],
      "stateMutability": "nonpayable",
      "type": "function"
    },
    {
      "inputs": [
        {
          "internalType": "address",
          "name": "account",
          "type": "address"
        }
      ],
      "name": "isFrozen",
      "outputs": [
        {
          "internalType": "bool",
          "name": "",
          "type": "bool"
        }
      ],
      "stateMutability": "view",
      "type": "function"
    },
    {
      "inputs": [
        {
          "internalType": "address",
          "name": "account",
          "type": "address"
        }
      ],
      "name": "isKycApproved",
      "outputs": [
        {
          "internalType": "bool",
          "name": "",
          "type": "bool"
        }
      ],
      "stateMutability": "view",
      "type": "function"
    },
    {
      "inputs": [
        {
          "internalType": "address",
          "name": "to",
          "type": "address"
        },
        {
          "internalType": "uint256",
          "name": "amount",
          "type": "uint256"
        },
        {
          "internalType": "string",
          "name": "memo",
          "type": "string"
        }
      ],
      "name": "mintReserves",
      "outputs": [],
      "stateMutability": "nonpayable",
      "type": "function"
    },
    {
      "inputs": [],
      "name": "name",
      "outputs": [
        {
          "internalType": "string",
          "name": "",
          "type": "string"
        }
      ],
      "stateMutability": "view",
      "type": "function"
    },
    {
      "inputs": [
        {
          "internalType": "address",
          "name": "owner",
          "type": "address"
        }
      ],
      "name": "nonces",
      "outputs": [
        {
          "internalType": "uint256",
          "name": "",
          "type": "uint256"
        }
      ],
      "stateMutability": "view",
      "type": "function"
    },
    {
      "inputs": [
        {
          "internalType": "string",
          "name": "memo",
          "type": "string"
        }
      ],
      "name": "pause",
      "outputs": [],
      "stateMutability": "nonpayable",
      "type": "function"
    },
    {
      "inputs": [],
      "name": "paused",
      "outputs": [
        {
          "internalType": "bool",
          "name": "",
          "type": "bool"
        }
      ],
      "stateMutability": "view",
      "type": "function"
    },
    {
      "inputs": [
        {
          "internalType": "address",
          "name": "owner",
          "type": "address"
        },
        {
          "internalType": "address",
          "name": "spender",
          "type": "address"
        },
        {
          "internalType": "uint256",
          "name": "value",
          "type": "uint256"
        },
        {
          "internalType": "uint256",
          "name": "deadline",
          "type": "uint256"
        },
        {
          "internalType": "uint8",
          "name": "v",
          "type": "uint8"
        },
        {
          "internalType": "bytes32",
          "name": "r",
          "type": "bytes32"
        },
        {
          "internalType": "bytes32",
          "name": "s",
          "type": "bytes32"
        }
      ],
      "name": "permit",
      "outputs": [],
      "stateMutability": "nonpayable",
      "type": "function"
    },
    {
      "inputs": [
        {
          "internalType": "string",
          "name": "uri",
          "type": "string"
        },
        {
          "internalType": "bytes32",
          "name": "documentHash",
          "type": "bytes32"
        }
      ],
      "name": "publishAttestation",
      "outputs": [
        {
          "internalType": "bytes32",
          "name": "attestationId",
          "type": "bytes32"
        }
      ],
      "stateMutability": "nonpayable",
      "type": "function"
    },
    {
      "inputs": [
        {
          "internalType": "uint256",
          "name": "amount",
          "type": "uint256"
        },
        {
          "internalType": "address",
          "name": "beneficiary",
          "type": "address"
        },
        {
          "internalType": "string",
          "name": "memo",
          "type": "string"
        }
      ],
      "name": "redeem",
      "outputs": [
        {
          "internalType": "uint256",
          "name": "",
          "type": "uint256"
        }
      ],
      "stateMutability": "nonpayable",
      "type": "function"
    },
    {
      "inputs": [
        {
          "internalType": "bytes32",
          "name": "attestationId",
          "type": "bytes32"
        }
      ],
      "name": "removeAttestation",
      "outputs": [],
      "stateMutability": "nonpayable",
      "type": "function"
    },
    {
      "inputs": [
        {
          "internalType": "bytes32",
          "name": "role",
          "type": "bytes32"
        },
        {
          "internalType": "address",
          "name": "callerConfirmation",
          "type": "address"
        }
      ],
      "name": "renounceRole",
      "outputs": [],
      "stateMutability": "nonpayable",
      "type": "function"
    },
    {
      "inputs": [
        {
          "internalType": "bytes32",
          "name": "role",
          "type": "bytes32"
        },
        {
          "internalType": "address",
          "name": "account",
          "type": "address"
        }
      ],
      "name": "revokeRole",
      "outputs": [],
      "stateMutability": "nonpayable",
      "type": "function"
    },
    {
      "inputs": [
        {
          "internalType": "address",
          "name": "account",
          "type": "address"
        },
        {
          "internalType": "bool",
          "name": "isApproved",
          "type": "bool"
        },
        {
          "internalType": "string",
          "name": "memo",
          "type": "string"
        }
      ],
      "name": "setKycStatus",
      "outputs": [],
      "stateMutability": "nonpayable",
      "type": "function"
    },
    {
      "inputs": [
        {
          "internalType": "bytes4",
          "name": "interfaceId",
          "type": "bytes4"
        }
      ],
      "name": "supportsInterface",
      "outputs": [
        {
          "internalType": "bool",
          "name": "",
          "type": "bool"
        }
      ],
      "stateMutability": "view",
      "type": "function"
    },
    {
      "inputs": [],
      "name": "symbol",
      "outputs": [
        {
          "internalType": "string",
          "name": "",
          "type": "string"
        }
      ],
      "stateMutability": "view",
      "type": "function"
    },
    {
      "inputs": [],
      "name": "totalSupply",
      "outputs": [
        {
          "internalType": "uint256",
          "name": "",
          "type": "uint256"
        }
      ],
      "stateMutability": "view",
      "type": "function"
    },
    {
      "inputs": [
        {
          "internalType": "address",
          "name": "to",
          "type": "address"
        },
        {
          "internalType": "uint256",
          "name": "value",
          "type": "uint256"
        }
      ],
      "name": "transfer",
      "outputs": [
        {
          "internalType": "bool",
          "name": "",
          "type": "bool"
        }
      ],
      "stateMutability": "nonpayable",
      "type": "function"
    },
    {
      "inputs": [
        {
          "internalType": "address",
          "name": "from",
          "type": "address"
        },
        {
          "internalType": "address",
          "name": "to",
          "type": "address"
        },
        {
          "internalType": "uint256",
          "name": "value",
          "type": "uint256"
        }
      ],
      "name": "transferFrom",
      "outputs": [
        {
          "internalType": "bool",
          "name": "",
          "type": "bool"
        }
      ],
      "stateMutability": "nonpayable",
      "type": "function"
    },
    {
      "inputs": [
        {
          "internalType": "string",
          "name": "memo",
          "type": "string"
        }
      ],
      "name": "unpause",
      "outputs": [],
      "stateMutability": "nonpayable",
      "type": "function"
    }
  ],
  "bytecode": "0x6080604052348015600f57600080fd5b506016601a565b60ca565b7ff0c57e16840df040f15088dc2f81fe391c3923bec73e23a9662efc9c229c6a00805468010000000000000000900460ff161560695760405163f92ee8a960e01b815260040160405180910390fd5b80546001600160401b039081161460c75780546001600160401b0319166001600160401b0390811782556040519081527fc7f505b2f371ae2175ee4913f4499e1f2633a7b5936321eed1cdaeb6115181d29060200160405180910390a15b50565b613303806100d96000396000f3fe608060405234801561001057600080fd5b50600436106102535760003560e01c80639010d07c11610146578063c838c668116100c3578063d547741f11610087578063d547741f14610589578063dd62ed3e1461059c578063e354a3f2146105af578063e5839836146105c2578063e63ab1e9146105ee578063e79faa581461060357600080fd5b8063c838c6681461052a578063c91f0c531461053d578063ca15c87314610550578063d3081f0014610563578063d505accf1461057657600080fd5b8063a3246ad31161010a578063a3246ad314610491578063a9059cbb146104b1578063c40b38bf146104c4578063c5f87257146104d7578063c824ecfa146104fe57600080fd5b80639010d07c1461042357806391d148541461044e57806395d89b4114610461578063a217fddf14610469578063a3112a641461047157600080fd5b806336568abe116101d45780636da66355116101985780636da66355146103bc57806370a08231146103cf5780637ecebe00146103e257806384b0196e146103f5578063890214561461041057600080fd5b806336568abe14610344578063462be210146103575780634ea07ca11461036a5780635c975abb1461037d578063627236441461039557600080fd5b806323b872dd1161021b57806323b872dd146102f2578063248a9ca3146103055780632f2ff15d14610318578063313ce5671461032d5780633644e5151461033c57600080fd5b806301ffc9a714610258578063062d3bd71461028057806306fdde03146102a3578063095ea7b3146102b857806318160ddd146102cb575b600080fd5b61026b6102663660046128a5565b610616565b60405190151581526020015b60405180910390f35b61029560008051602061324e83398151915281565b604051908152602001610277565b6102ab610627565b6040516102779190612915565b61026b6102c6366004612944565b6106d0565b7f52c63247e1f47db19d5ce0460030c497f067ca4cebf71ba98eeadabe20bace0254610295565b61026b61030036600461296e565b6106e8565b6102956103133660046129ab565b61070c565b61032b6103263660046129c4565b61072e565b005b60405160028152602001610277565b610295610750565b61032b6103523660046129c4565b61075f565b61032b610365366004612a39565b610797565b610295610378366004612a93565b6108b2565b6000805160206132ae8339815191525460ff1661026b565b6102957fa7e0cd0f2772b23ee4c329892293a6bd99d48c306b094d6d008c9a8bb8b731e481565b61032b6103ca366004612adf565b610a1a565b6102956103dd366004612b21565b610a7b565b6102956103f0366004612b21565b610aae565b6103fd610ab9565b6040516102779796959493929190612b3c565b61032b61041e366004612bd4565b610b65565b610436610431366004612c43565b610c9b565b6040516001600160a01b039091168152602001610277565b61026b61045c3660046129c4565b610cca565b6102ab610d02565b610295600081565b61048461047f3660046129ab565b610d41565b6040516102779190612c65565b6104a461049f3660046129ab565b610e23565b6040516102779190612ca1565b61026b6104bf366004612944565b610e55565b61032b6104d2366004612ced565b610e63565b6102957fcc938097bd07c9f1619d5e95c26b457140e80b889795c7c1cbd51a28005e02ac81565b61026b61050c366004612b21565b6001600160a01b031660009081526001602052604090205460ff1690565b610295610538366004612d3d565b610f18565b61032b61054b366004612d63565b6110de565b61029561055e3660046129ab565b611544565b61032b6105713660046129ab565b61156a565b61032b610584366004612e2a565b611636565b61032b6105973660046129c4565b61178f565b6102956105aa366004612e9d565b6117ab565b61032b6105bd366004612ced565b6117f5565b61026b6105d0366004612b21565b6001600160a01b031660009081526002602052604090205460ff1690565b61029560008051602061326e83398151915281565b61032b610611366004612adf565b6118bb565b60006106218261190f565b92915050565b6060600060008051602061320e8339815191525b905080600301805461064c90612ec7565b80601f016020809104026020016040519081016040528092919081815260200182805461067890612ec7565b80156106c55780601f1061069a576101008083540402835291602001916106c5565b820191906000526020600020905b8154815290600101906020018083116106a857829003601f168201915b505050505091505090565b6000336106de818585611934565b5060019392505050565b6000336106f6858285611941565b6107018585856119a2565b506001949350505050565b600090815260008051602061328e833981519152602052604090206001015490565b6107378261070c565b61074081611a01565b61074a8383611a0e565b50505050565b600061075a611a53565b905090565b6001600160a01b03811633146107885760405163334bd91960e11b815260040160405180910390fd5b6107928282611a5d565b505050565b7fcc938097bd07c9f1619d5e95c26b457140e80b889795c7c1cbd51a28005e02ac6107c181611a01565b6107c9611a99565b6001600160a01b0385166108245760405162461bcd60e51b815260206004820152601a60248201527f484b537461626c65636f696e3a206d696e7420746f207a65726f00000000000060448201526064015b60405180910390fd5b6001600160a01b03851660009081526001602052604090205460ff1661085c5760405162461bcd60e51b815260040161081b90612f01565b6108668585611acc565b846001600160a01b03167f88b002a060da08835f72e73890273303efd05689891a9a3f3e555a20e82e983d8585856040516108a393929190612f72565b60405180910390a25050505050565b60007fa7e0cd0f2772b23ee4c329892293a6bd99d48c306b094d6d008c9a8bb8b731e46108de81611a01565b8361092b5760405162461bcd60e51b815260206004820152601a60248201527f484b537461626c65636f696e3a20757269207265717569726564000000000000604482015260640161081b565b84848442334660405160200161094696959493929190612f95565b60408051601f1981840301815282825280516020918201206080601f890183900490920284018201909252606083018781529194508291908890889081908501838280828437600092018290525093855250505060208083018790524260409384015285825281905220815181906109be908261302b565b506020820151816001015560408201518160020155905050817f9fc41c5ced2fa7a58406120a0e62216bcc26e51f3a90b1e075a973ae75316400868686604051610a0a939291906130ea565b60405180910390a2509392505050565b60008051602061326e833981519152610a3281611a01565b610a3a611b06565b7f322751a8c884c0fdef7ca7f3dff8a262ebfe7ab687be02d5bf50bcbad2660f1860018484604051610a6e9392919061310e565b60405180910390a1505050565b60008060008051602061320e8339815191525b6001600160a01b0390931660009081526020939093525050604090205490565b600061062182611b69565b6000606080828080838160008051602061322e8339815191528054909150158015610ae657506001810154155b610b2a5760405162461bcd60e51b81526020600482015260156024820152741152540dcc4c8e88155b9a5b9a5d1a585b1a5e9959605a1b604482015260640161081b565b610b32611b92565b610b3a611bd1565b60408051600080825260208201909252600f60f81b9c939b5091995046985030975095509350915050565b60008051602061324e833981519152610b7d81611a01565b610b85611a99565b6001600160a01b03861615801590610ba557506001600160a01b03851615155b610bf15760405162461bcd60e51b815260206004820152601a60248201527f484b537461626c65636f696e3a207a65726f2061646472657373000000000000604482015260640161081b565b6001600160a01b03851660009081526001602052604090205460ff16610c295760405162461bcd60e51b815260040161081b90612f01565b610c348686866119a2565b846001600160a01b0316866001600160a01b0316610c4f3390565b6001600160a01b03167ffacbedfabaf0b5bb0239ae5281977c0abdcc51d35de8f7455c5f312e4b591ef4878787604051610c8b93929190612f72565b60405180910390a4505050505050565b60008281526000805160206131ee833981519152602081905260408220610cc29084611be9565b949350505050565b600091825260008051602061328e833981519152602090815260408084206001600160a01b0393909316845291905290205460ff1690565b7f52c63247e1f47db19d5ce0460030c497f067ca4cebf71ba98eeadabe20bace04805460609160008051602061320e8339815191529161064c90612ec7565b604080516060808201835281526000602082018190529181019190915260008281526020819052604090819020815160608101909252805482908290610d8690612ec7565b80601f0160208091040260200160405190810160405280929190818152602001828054610db290612ec7565b8015610dff5780601f10610dd457610100808354040283529160200191610dff565b820191906000526020600020905b815481529060010190602001808311610de257829003601f168201915b50505050508152602001600182015481526020016002820154815250509050919050565b60008181526000805160206131ee8339815191526020819052604090912060609190610e4e90611bf5565b9392505050565b6000336106de8185856119a2565b60008051602061324e833981519152610e7b81611a01565b6001600160a01b038516610ed15760405162461bcd60e51b815260206004820152601a60248201527f484b537461626c65636f696e3a207a65726f206163636f756e74000000000000604482015260640161081b565b610edb8585611c02565b846001600160a01b03167f95cb677d55fe2aca7fdb1ed58b601004a09dd0000bd5e0c0682891841f0615088585856040516108a39392919061310e565b6000610f22611a99565b60008511610f725760405162461bcd60e51b815260206004820152601c60248201527f484b537461626c65636f696e3a20616d6f756e74206973207a65726f00000000604482015260640161081b565b6001600160a01b038416610fd25760405162461bcd60e51b815260206004820152602160248201527f484b537461626c65636f696e3a2062656e6566696369617279206973207a65726044820152606f60f81b606482015260840161081b565b3360009081526001602052604090205460ff166110015760405162461bcd60e51b815260040161081b9061312a565b6001600160a01b03841660009081526001602052604090205460ff1661107c5760405162461bcd60e51b815260206004820152602a60248201527f484b537461626c65636f696e3a2062656e6566696369617279206e6f74204b5960448201526910c8185c1c1c9bdd995960b21b606482015260840161081b565b6110863386611c2d565b6001600160a01b038416336001600160a01b03167fb9fa00fe4be8478ea5fa84cec9d86c255a533e76f0a4fae45a56e94e0694a84d8786866040516110cd93929190612f72565b60405180910390a350929392505050565b60006110e8611c63565b805490915060ff600160401b820416159067ffffffffffffffff166000811580156111105750825b905060008267ffffffffffffffff16600114801561112d5750303b155b90508115801561113b575080155b156111595760405163f92ee8a960e01b815260040160405180910390fd5b845467ffffffffffffffff19166001178555831561118357845460ff60401b1916600160401b1785555b6001600160a01b038a166111d95760405162461bcd60e51b815260206004820152601b60248201527f484b537461626c65636f696e3a2061646d696e206973207a65726f0000000000604482015260640161081b565b6001600160a01b03891661123d5760405162461bcd60e51b815260206004820152602560248201527f484b537461626c65636f696e3a2072657365727665206d616e61676572206973604482015264207a65726f60d81b606482015260840161081b565b6001600160a01b0388166112a45760405162461bcd60e51b815260206004820152602860248201527f484b537461626c65636f696e3a20636f6d706c69616e6365206f666669636572604482015267206973207a65726f60c01b606482015260840161081b565b6001600160a01b0387166112fa5760405162461bcd60e51b815260206004820152601c60248201527f484b537461626c65636f696e3a20706175736572206973207a65726f00000000604482015260640161081b565b6001600160a01b0386166113505760405162461bcd60e51b815260206004820152601e60248201527f484b537461626c65636f696e3a206174746573746f72206973207a65726f0000604482015260640161081b565b6113d48e8e8080601f016020809104026020016040519081016040528093929190818152602001838380828437600081840152601f19601f820116905080830192505050505050508d8d8080601f016020809104026020016040519081016040528093929190818152602001838380828437600092019190915250611c8c92505050565b6114138e8e8080601f016020809104026020016040519081016040528093929190818152602001838380828437600092019190915250611c9e92505050565b61141b611cc9565b611423611cc9565b61142e60008b611a0e565b506114597fcc938097bd07c9f1619d5e95c26b457140e80b889795c7c1cbd51a28005e02ac8a611a0e565b5061147260008051602061324e83398151915289611a0e565b5061148b60008051602061326e83398151915288611a0e565b506114b67fa7e0cd0f2772b23ee4c329892293a6bd99d48c306b094d6d008c9a8bb8b731e487611a0e565b506114c28a6001611c02565b6114cd896001611c02565b6114d8886001611c02565b6114e3876001611c02565b6114ee866001611c02565b831561153457845460ff60401b19168555604051600181527fc7f505b2f371ae2175ee4913f4499e1f2633a7b5936321eed1cdaeb6115181d29060200160405180910390a15b5050505050505050505050505050565b60008181526000805160206131ee833981519152602081905260408220610e4e90611cd1565b600061157581611a01565b60008281526020819052604081206002015490036115df5760405162461bcd60e51b815260206004820152602160248201527f484b537461626c65636f696e3a20756e6b6e6f776e206174746573746174696f6044820152603760f91b606482015260840161081b565b6000828152602081905260408120906115f88282612857565b50600060018201819055600290910181905560405183917f58e4afed3c54b79948fa86df84c16b0cdac1ae73641e65a1d412b5617305523891a25050565b8342111561165a5760405163313c898160e11b81526004810185905260240161081b565b60007f6e71edae12b1b97f4d1f60370fef10105fa2faae0126114a169c64845d6126c98888886116c68c6001600160a01b031660009081527f5ab42ced628888259c08ac98db1eb0cf702fc1501344311d8b100cd1bfe4bb006020526040902080546001810190915590565b6040805160208101969096526001600160a01b0394851690860152929091166060840152608083015260a082015260c0810186905260e001604051602081830303815290604052805190602001209050600061172182611cdb565b9050600061173182878787611d08565b9050896001600160a01b0316816001600160a01b031614611778576040516325c0072360e11b81526001600160a01b0380831660048301528b16602482015260440161081b565b6117838a8a8a611934565b50505050505050505050565b6117988261070c565b6117a181611a01565b61074a8383611a5d565b6001600160a01b0391821660009081527f52c63247e1f47db19d5ce0460030c497f067ca4cebf71ba98eeadabe20bace016020908152604080832093909416825291909152205490565b60008051602061324e83398151915261180d81611a01565b6001600160a01b0385166118635760405162461bcd60e51b815260206004820152601a60248201527f484b537461626c65636f696e3a207a65726f206163636f756e74000000000000604482015260640161081b565b6001600160a01b03851660008181526002602052604090819020805460ff1916871515179055517fc57f74a3bbe8a3f7ee52986fceb81c0813b0f0cd3ab1dae0ba44e785e349e85e906108a39087908790879061310e565b60008051602061326e8339815191526118d381611a01565b6118db611d36565b7f322751a8c884c0fdef7ca7f3dff8a262ebfe7ab687be02d5bf50bcbad2660f1860008484604051610a6e9392919061310e565b60006001600160e01b03198216635a05180f60e01b1480610621575061062182611d7c565b6107928383836001611db1565b600061194d84846117ab565b905060001981101561074a578181101561199357604051637dc7a0d960e11b81526001600160a01b0384166004820152602481018290526044810183905260640161081b565b61074a84848484036000611db1565b6001600160a01b0383166119cc57604051634b637e8f60e11b81526000600482015260240161081b565b6001600160a01b0382166119f65760405163ec442f0560e01b81526000600482015260240161081b565b610792838383611e99565b611a0b813361200c565b50565b60006000805160206131ee83398151915281611a2a8585612045565b90508015610cc2576000858152602083905260409020611a4a90856120ea565b50949350505050565b600061075a6120ff565b60006000805160206131ee83398151915281611a798585612173565b90508015610cc2576000858152602083905260409020611a4a90856121ef565b6000805160206132ae8339815191525460ff1615611aca5760405163d93c066560e01b815260040160405180910390fd5b565b6001600160a01b038216611af65760405163ec442f0560e01b81526000600482015260240161081b565b611b0260008383611e99565b5050565b611b0e611a99565b6000805160206132ae833981519152805460ff191660011781557f62e78cea01bee320cd4e420270b5ea74000d11b0c9f74754ebdbfc544b05a258335b6040516001600160a01b03909116815260200160405180910390a150565b6000807f5ab42ced628888259c08ac98db1eb0cf702fc1501344311d8b100cd1bfe4bb00610a8e565b7fa16a46d94261c7517cc8ff89f61c0ce93598e3c849801011dee649a6a557d102805460609160008051602061322e8339815191529161064c90612ec7565b6060600060008051602061322e83398151915261063b565b6000610e4e8383612204565b60606000610e4e8361222e565b6001600160a01b03919091166000908152600160205260409020805460ff1916911515919091179055565b6001600160a01b038216611c5757604051634b637e8f60e11b81526000600482015260240161081b565b611b0282600083611e99565b6000807ff0c57e16840df040f15088dc2f81fe391c3923bec73e23a9662efc9c229c6a00610621565b611c9461228a565b611b0282826122af565b611ca661228a565b611a0b81604051806040016040528060018152602001603160f81b815250612300565b611aca61228a565b6000610621825490565b6000610621611ce8611a53565b8360405161190160f01b8152600281019290925260228201526042902090565b600080600080611d1a88888888612361565b925092509250611d2a8282612430565b50909695505050505050565b611d3e6124e9565b6000805160206132ae833981519152805460ff191681557f5db9ee0a495bf2e6ff9c91a7834c1ba4fdd244a5e8aa4e537bd38aeae4b073aa33611b4b565b60006001600160e01b03198216637965db0b60e01b148061062157506301ffc9a760e01b6001600160e01b0319831614610621565b60008051602061320e8339815191526001600160a01b038516611dea5760405163e602df0560e01b81526000600482015260240161081b565b6001600160a01b038416611e1457604051634a1406b160e11b81526000600482015260240161081b565b6001600160a01b03808616600090815260018301602090815260408083209388168352929052208390558115611e9257836001600160a01b0316856001600160a01b03167f8c5be1e5ebec7d5bd14f71427d1e84f3dd0314c0f7b2291e5b200ac8c7c3b92585604051611e8991815260200190565b60405180910390a35b5050505050565b611ea1611a99565b6001600160a01b03831615611f51576001600160a01b03831660009081526001602052604090205460ff16611ee85760405162461bcd60e51b815260040161081b9061312a565b6001600160a01b03831660009081526002602052604090205460ff1615611f515760405162461bcd60e51b815260206004820152601b60248201527f484b537461626c65636f696e3a2073656e6465722066726f7a656e0000000000604482015260640161081b565b6001600160a01b03821615612001576001600160a01b03821660009081526001602052604090205460ff16611f985760405162461bcd60e51b815260040161081b90612f01565b6001600160a01b03821660009081526002602052604090205460ff16156120015760405162461bcd60e51b815260206004820152601e60248201527f484b537461626c65636f696e3a20726563697069656e742066726f7a656e0000604482015260640161081b565b610792838383612519565b6120168282610cca565b611b025760405163e2517d3f60e01b81526001600160a01b03821660048201526024810183905260440161081b565b600060008051602061328e8339815191526120608484610cca565b6120e0576000848152602082815260408083206001600160a01b03871684529091529020805460ff191660011790556120963390565b6001600160a01b0316836001600160a01b0316857f2f8788117e7eff1d82e926ec794901d17c78024a50270940304540a733656f0d60405160405180910390a46001915050610621565b6000915050610621565b6000610e4e836001600160a01b038416612657565b60007f8b73c3c69bb8fe3d512ecc4cf759cc79239f7b179b0ffacaa9a75d522b39400f61212a6126a6565b612132612710565b60408051602081019490945283019190915260608201524660808201523060a082015260c00160405160208183030381529060405280519060200120905090565b600060008051602061328e83398151915261218e8484610cca565b156120e0576000848152602082815260408083206001600160a01b0387168085529252808320805460ff1916905551339287917ff6391f5c32d9c69d2a47ea670b442974b53935d1edc7fd64eb21e047a839171b9190a46001915050610621565b6000610e4e836001600160a01b038416612754565b600082600001828154811061221b5761221b61316f565b9060005260206000200154905092915050565b60608160000180548060200260200160405190810160405280929190818152602001828054801561227e57602002820191906000526020600020905b81548152602001906001019080831161226a575b50505050509050919050565b61229261283d565b611aca57604051631afcd79f60e31b815260040160405180910390fd5b6122b761228a565b60008051602061320e8339815191527f52c63247e1f47db19d5ce0460030c497f067ca4cebf71ba98eeadabe20bace036122f1848261302b565b506004810161074a838261302b565b61230861228a565b60008051602061322e8339815191527fa16a46d94261c7517cc8ff89f61c0ce93598e3c849801011dee649a6a557d102612342848261302b565b5060038101612351838261302b565b5060008082556001909101555050565b600080807f7fffffffffffffffffffffffffffffff5d576e7357a4501ddfe92f46681b20a084111561239c5750600091506003905082612426565b604080516000808252602082018084528a905260ff891692820192909252606081018790526080810186905260019060a0016020604051602081039080840390855afa1580156123f0573d6000803e3d6000fd5b5050604051601f1901519150506001600160a01b03811661241c57506000925060019150829050612426565b9250600091508190505b9450945094915050565b600082600381111561244457612444613185565b0361244d575050565b600182600381111561246157612461613185565b0361247f5760405163f645eedf60e01b815260040160405180910390fd5b600282600381111561249357612493613185565b036124b45760405163fce698f760e01b81526004810182905260240161081b565b60038260038111156124c8576124c8613185565b03611b02576040516335e2f38360e21b81526004810182905260240161081b565b6000805160206132ae8339815191525460ff16611aca57604051638dfc202b60e01b815260040160405180910390fd5b60008051602061320e8339815191526001600160a01b038416612555578181600201600082825461254a91906131b1565b909155506125c79050565b6001600160a01b038416600090815260208290526040902054828110156125a85760405163391434e360e21b81526001600160a01b0386166004820152602481018290526044810184905260640161081b565b6001600160a01b03851660009081526020839052604090209083900390555b6001600160a01b0383166125e5576002810180548390039055612604565b6001600160a01b03831660009081526020829052604090208054830190555b826001600160a01b0316846001600160a01b03167fddf252ad1be2c89b69c2b068fc378daa952ba7f163c4a11628f55a4df523b3ef8460405161264991815260200190565b60405180910390a350505050565b600081815260018301602052604081205461269e57508154600181810184556000848152602080822090930184905584548482528286019093526040902091909155610621565b506000610621565b600060008051602061322e833981519152816126c0611b92565b8051909150156126d857805160209091012092915050565b815480156126e7579392505050565b7fc5d2460186f7233c927e7db2dcc703c0e500b653ca82273b7bfad8045d85a470935050505090565b600060008051602061322e8339815191528161272a611bd1565b80519091501561274257805160209091012092915050565b600182015480156126e7579392505050565b600081815260018301602052604081205480156120e05760006127786001836131c4565b855490915060009061278c906001906131c4565b90508082146127f15760008660000182815481106127ac576127ac61316f565b90600052602060002001549050808760000184815481106127cf576127cf61316f565b6000918252602080832090910192909255918252600188019052604090208390555b8554869080612802576128026131d7565b600190038181906000526020600020016000905590558560010160008681526020019081526020016000206000905560019350505050610621565b6000612847611c63565b54600160401b900460ff16919050565b50805461286390612ec7565b6000825580601f10612873575050565b601f016020900490600052602060002090810190611a0b91905b808211156128a1576000815560010161288d565b5090565b6000602082840312156128b757600080fd5b81356001600160e01b031981168114610e4e57600080fd5b6000815180845260005b818110156128f5576020818501810151868301820152016128d9565b506000602082860101526020601f19601f83011685010191505092915050565b602081526000610e4e60208301846128cf565b80356001600160a01b038116811461293f57600080fd5b919050565b6000806040838503121561295757600080fd5b61296083612928565b946020939093013593505050565b60008060006060848603121561298357600080fd5b61298c84612928565b925061299a60208501612928565b929592945050506040919091013590565b6000602082840312156129bd57600080fd5b5035919050565b600080604083850312156129d757600080fd5b823591506129e760208401612928565b90509250929050565b60008083601f840112612a0257600080fd5b50813567ffffffffffffffff811115612a1a57600080fd5b602083019150836020828501011115612a3257600080fd5b9250929050565b60008060008060608587031215612a4f57600080fd5b612a5885612928565b935060208501359250604085013567ffffffffffffffff811115612a7b57600080fd5b612a87878288016129f0565b95989497509550505050565b600080600060408486031215612aa857600080fd5b833567ffffffffffffffff811115612abf57600080fd5b612acb868287016129f0565b909790965060209590950135949350505050565b60008060208385031215612af257600080fd5b823567ffffffffffffffff811115612b0957600080fd5b612b15858286016129f0565b90969095509350505050565b600060208284031215612b3357600080fd5b610e4e82612928565b60ff60f81b8816815260e060208201526000612b5b60e08301896128cf565b8281036040840152612b6d81896128cf565b606084018890526001600160a01b038716608085015260a0840186905283810360c08501528451808252602080870193509091019060005b81811015612bc3578351835260209384019390920191600101612ba5565b50909b9a5050505050505050505050565b600080600080600060808688031215612bec57600080fd5b612bf586612928565b9450612c0360208701612928565b935060408601359250606086013567ffffffffffffffff811115612c2657600080fd5b612c32888289016129f0565b969995985093965092949392505050565b60008060408385031215612c5657600080fd5b50508035926020909101359150565b602081526000825160606020840152612c8160808401826128cf565b905060208401516040840152604084015160608401528091505092915050565b602080825282518282018190526000918401906040840190835b81811015612ce25783516001600160a01b0316835260209384019390920191600101612cbb565b509095945050505050565b60008060008060608587031215612d0357600080fd5b612d0c85612928565b935060208501358015158114612d2157600080fd5b9250604085013567ffffffffffffffff811115612a7b57600080fd5b60008060008060608587031215612d5357600080fd5b84359350612d2160208601612928565b600080600080600080600080600060e08a8c031215612d8157600080fd5b893567ffffffffffffffff811115612d9857600080fd5b612da48c828d016129f0565b909a5098505060208a013567ffffffffffffffff811115612dc457600080fd5b612dd08c828d016129f0565b9098509650612de3905060408b01612928565b9450612df160608b01612928565b9350612dff60808b01612928565b9250612e0d60a08b01612928565b9150612e1b60c08b01612928565b90509295985092959850929598565b600080600080600080600060e0888a031215612e4557600080fd5b612e4e88612928565b9650612e5c60208901612928565b95506040880135945060608801359350608088013560ff81168114612e8057600080fd5b9699959850939692959460a0840135945060c09093013592915050565b60008060408385031215612eb057600080fd5b612eb983612928565b91506129e760208401612928565b600181811c90821680612edb57607f821691505b602082108103612efb57634e487b7160e01b600052602260045260246000fd5b50919050565b60208082526028908201527f484b537461626c65636f696e3a20726563697069656e74206e6f74204b594320604082015267185c1c1c9bdd995960c21b606082015260800190565b81835281816020850137506000828201602090810191909152601f909101601f19169091010190565b838152604060208201526000612f8c604083018486612f49565b95945050505050565b85878237909401928352602083019190915260601b6bffffffffffffffffffffffff191660408201526054810191909152607401919050565b634e487b7160e01b600052604160045260246000fd5b601f82111561079257806000526020600020601f840160051c8101602085101561300b5750805b601f840160051c820191505b81811015611e925760008155600101613017565b815167ffffffffffffffff81111561304557613045612fce565b613059816130538454612ec7565b84612fe4565b6020601f82116001811461308d57600083156130755750848201515b600019600385901b1c1916600184901b178455611e92565b600084815260208120601f198516915b828110156130bd578785015182556020948501946001909201910161309d565b50848210156130db5786840151600019600387901b60f8161c191681555b50505050600190811b01905550565b6040815260006130fe604083018587612f49565b9050826020830152949350505050565b8315158152604060208201526000612f8c604083018486612f49565b60208082526025908201527f484b537461626c65636f696e3a2073656e646572206e6f74204b5943206170706040820152641c9bdd995960da1b606082015260800190565b634e487b7160e01b600052603260045260246000fd5b634e487b7160e01b600052602160045260246000fd5b634e487b7160e01b600052601160045260246000fd5b808201808211156106215761062161319b565b818103818111156106215761062161319b565b634e487b7160e01b600052603160045260246000fdfec1f6fe24621ce81ec5827caf0253cadb74709b061630e6b55e8237170593200052c63247e1f47db19d5ce0460030c497f067ca4cebf71ba98eeadabe20bace00a16a46d94261c7517cc8ff89f61c0ce93598e3c849801011dee649a6a557d100442a94f1a1fac79af32856af2a64f63648cfa2ef3b98610a5bb7cbec4cee698565d7a28e3265b37a6474929f336521b332c1681b933f6cb9f3376673440d862a02dd7bc7dec4dceedda775e58dd541e08a116c6c53815c0bd028192f7b626800cd5ed15c6e187e77e9aee88184c21f4f2182ab5827cb3b7e07fbedcd63f03300a264697066735822122031db0e12aa9ebc8e03a5c5bdf44041971bac141ecea682465e7e3072dafbdaa064736f6c634300081c0033",
  "linkReferences": {},
  "deployedLinkReferences": {}
}